{
  "transactions": [
    {
      "hash": "0x17be6ba854051b1de2fef48339074d6705ee5ae801cc76b894209b9a5c240026",
      "transactionType": "CALL",
      "contractName": null,
      "contractAddress": "0x3c8dd7870e9a8e7e996543c4adeb643438d4aba8",
      "function": "approve(address,uint256)",
      "arguments": [
        "0xd0335A436A34278fe380C5997152DB21F1DA7A10",
        "115792089237316195423570985008687907853269984665640564039457584007913129639935"
      ],
      "transaction": {
        "from": "0xc8ff43fe2902dd70d9ace849f384222af4c8030a",
        "to": "0x3c8dd7870e9a8e7e996543c4adeb643438d4aba8",
        "gas": "0x8cd4",
        "value": "0x0",
        "input": "0x095ea7b3000000000000000000000000d0335a436a34278fe380c5997152db21f1da7a10ffffffffffffffffffffffffffffffffffffffffffffffffffffffffffffffff",
        "nonce": "0x1c",
        "chainId": "0x66eee"
      },
      "additionalContracts": [],
      "isFixedGasLimit": false
    },
    {
      "hash": "0x3e9db98105de6d85b85c2a2f3e6ac3a6e2e07b708b71caed2e987eea0d705e08",
      "transactionType": "CALL",
      "contractName": null,
      "contractAddress": "0xe6dc9225e4c76f9c0b002ab2782f687e35cc7666",
      "function": "approve(address,uint256)",
      "arguments": [
        "0xd0335A436A34278fe380C5997152DB21F1DA7A10",
        "115792089237316195423570985008687907853269984665640564039457584007913129639935"
      ],
      "transaction": {
        "from": "0xc8ff43fe2902dd70d9ace849f384222af4c8030a",
        "to": "0xe6dc9225e4c76f9c0b002ab2782f687e35cc7666",
        "gas": "0x8cd4",
        "value": "0x0",
        "input": "0x095ea7b3000000000000000000000000d0335a436a34278fe380c5997152db21f1da7a10ffffffffffffffffffffffffffffffffffffffffffffffffffffffffffffffff",
        "nonce": "0x1d",
        "chainId": "0x66eee"
      },
      "additionalContracts": [],
      "isFixedGasLimit": false
    },
    {
      "hash": "0xb112b6d61541d16a6bb8f7ed5ced8d35397ad3c8aba24d6a9627cbd1843813a1",
      "transactionType": "CALL",
      "contractName": null,
      "contractAddress": "0xd0335a436a34278fe380c5997152db21f1da7a10",
      "function": "mint(address,int24,int24,uint128)",
      "arguments": [
        "0xC8FF43FE2902dd70d9ace849f384222aF4c8030a",
        "-10000",
        "10000",
        "1000000000000"
      ],
      "transaction": {
        "from": "0xc8ff43fe2902dd70d9ace849f384222af4c8030a",
        "to": "0xd0335a436a34278fe380c5997152db21f1da7a10",
        "gas": "0x101b5",
        "value": "0x0",
        "input": "0xb8cca34e000000000000000000000000c8ff43fe2902dd70d9ace849f384222af4c8030affffffffffffffffffffffffffffffffffffffffffffffffffffffffffffd8f00000000000000000000000000000000000000000000000000000000000002710000000000000000000000000000000000000000000000000000000e8d4a51000",
        "nonce": "0x1e",
        "chainId": "0x66eee"
      },
      "additionalContracts": [],
      "isFixedGasLimit": false
    },
    {
      "hash": "0xd4d3c4991c05019d2dc77d2d8c314582baf673a03850bbf48567368c698c382c",
      "transactionType": "CALL",
      "contractName": null,
      "contractAddress": "0x3c8dd7870e9a8e7e996543c4adeb643438d4aba8",
      "function": "transfer(address,uint256)",
      "arguments": [
        "0xd0335A436A34278fe380C5997152DB21F1DA7A10",
        "1718145927628"
      ],
      "transaction": {
        "from": "0xc8ff43fe2902dd70d9ace849f384222af4c8030a",
        "to": "0x3c8dd7870e9a8e7e996543c4adeb643438d4aba8",
        "gas": "0xb3c2",
        "value": "0x0",
        "input": "0xa9059cbb000000000000000000000000d0335a436a34278fe380c5997152db21f1da7a1000000000000000000000000000000000000000000000000000000190097a49cc",
        "nonce": "0x1f",
        "chainId": "0x66eee"
      },
      "additionalContracts": [],
      "isFixedGasLimit": false
    },
    {
      "hash": "0x21ecb4df7ce9805fc870b6b8dc3e33fd8afe51fdf9b28b35fdf2541b1b7f38e6",
      "transactionType": "CALL",
      "contractName": null,
      "contractAddress": "0xe6dc9225e4c76f9c0b002ab2782f687e35cc7666",
      "function": "transfer(address,uint256)",
      "arguments": [
        "0xd0335A436A34278fe380C5997152DB21F1DA7A10",
        "0"
      ],
      "transaction": {
        "from": "0xc8ff43fe2902dd70d9ace849f384222af4c8030a",
        "to": "0xe6dc9225e4c76f9c0b002ab2782f687e35cc7666",
        "gas": "0x96e6",
        "value": "0x0",
        "input": "0xa9059cbb000000000000000000000000d0335a436a34278fe380c5997152db21f1da7a100000000000000000000000000000000000000000000000000000000000000000",
        "nonce": "0x20",
        "chainId": "0x66eee"
      },
      "additionalContracts": [],
      "isFixedGasLimit": false
    }
  ],
  "receipts": [
    {
      "status": "0x1",
      "cumulativeGasUsed": "0x22327",
      "logs": [
        {
          "address": "0x3c8dd7870e9a8e7e996543c4adeb643438d4aba8",
          "topics": [
            "0x8c5be1e5ebec7d5bd14f71427d1e84f3dd0314c0f7b2291e5b200ac8c7c3b925",
            "0x000000000000000000000000c8ff43fe2902dd70d9ace849f384222af4c8030a",
            "0x000000000000000000000000d0335a436a34278fe380c5997152db21f1da7a10"
          ],
          "data": "0xffffffffffffffffffffffffffffffffffffffffffffffffffffffffffffffff",
          "blockHash": "0x4c9851894ccb6cac2f9b08829907eecadf9b501563ad92b93337fe7f80116947",
          "blockNumber": "0xb3885c7",
          "transactionHash": "0x17be6ba854051b1de2fef48339074d6705ee5ae801cc76b894209b9a5c240026",
          "transactionIndex": "0x2",
          "logIndex": "0x3",
          "removed": false
        }
      ],
      "logsBloom": "0x00000000000000000000000000000000000000000000020000000000000000000000000000000000000000000000000000000000800000000000000000200000000000000000000000000000000000000000000000000000000000000000000000000000000000020000800000000000000000000000000000000000000000000000000000000000000000000000000000000000000000000100000000000000020000000008000000000000000000000000000040000000000000000000000000000000000004000000000000000000000000000000000000000000400000000010000000000000000000000000000000000000000000000000000000000000",
      "type": "0x2",
      "transactionHash": "0x17be6ba854051b1de2fef48339074d6705ee5ae801cc76b894209b9a5c240026",
      "transactionIndex": "0x2",
      "blockHash": "0x4c9851894ccb6cac2f9b08829907eecadf9b501563ad92b93337fe7f80116947",
      "blockNumber": "0xb3885c7",
      "gasUsed": "0x6afb",
      "effectiveGasPrice": "0x5f5e100",
      "from": "0xc8ff43fe2902dd70d9ace849f384222af4c8030a",
      "to": "0x3c8dd7870e9a8e7e996543c4adeb643438d4aba8",
      "contractAddress": null,
      "gasUsedForL1": "0x0",
      "l1BlockNumber": "0x8a7ec1",
      "timeboosted": false
    },
    {
      "status": "0x1",
      "cumulativeGasUsed": "0x4c71f",
      "logs": [
        {
          "address": "0xe6dc9225e4c76f9c0b002ab2782f687e35cc7666",
          "topics": [
            "0x8c5be1e5ebec7d5bd14f71427d1e84f3dd0314c0f7b2291e5b200ac8c7c3b925",
            "0x000000000000000000000000c8ff43fe2902dd70d9ace849f384222af4c8030a",
            "0x000000000000000000000000d0335a436a34278fe380c5997152db21f1da7a10"
          ],
          "data": "0xffffffffffffffffffffffffffffffffffffffffffffffffffffffffffffffff",
          "blockHash": "0x943f94076ee62f570237f200c89126a80aca3db245ca4ade39b0bc935221bd43",
          "blockNumber": "0xb3885d0",
          "transactionHash": "0x3e9db98105de6d85b85c2a2f3e6ac3a6e2e07b708b71caed2e987eea0d705e08",
          "transactionIndex": "0x4",
          "logIndex": "0x8",
          "removed": false
        }
      ],
      "logsBloom": "0x00000000000000000000000000000000000000000000020000000000000000000000000000000000000000000000000000000000800000000000000000200000002000000000000000000000000000800000000000000000000000000000000000000000000000000000000000000000000000000000000000000000000000000000000000000000000000000000000000000000000000000000000000000000020000000008000000000000000000000000000040000000000000000000000000400000000004000000000000000000000000000000000000000000400000000010000000000000000000000000000000000000000000000000000000000000",
      "type": "0x2",
      "transactionHash": "0x3e9db98105de6d85b85c2a2f3e6ac3a6e2e07b708b71caed2e987eea0d705e08",
      "transactionIndex": "0x4",
      "blockHash": "0x943f94076ee62f570237f200c89126a80aca3db245ca4ade39b0bc935221bd43",
      "blockNumber": "0xb3885d0",
      "gasUsed": "0x6afb",
      "effectiveGasPrice": "0x5f5e100",
      "from": "0xc8ff43fe2902dd70d9ace849f384222af4c8030a",
      "to": "0xe6dc9225e4c76f9c0b002ab2782f687e35cc7666",
      "contractAddress": null,
      "gasUsedForL1": "0x0",
      "l1BlockNumber": "0x8a7ec1",
      "timeboosted": false
    },
    {
      "status": "0x1",
      "cumulativeGasUsed": "0xbceb8",
      "logs": [],
      "logsBloom": "0x00000000000000000000000000000000000000000000000000000000000000000000000000000000000000000000000000000000000000000000000000000000000000000000000000000000000000000000000000000000000000000000000000000000000000000000000000000000000000000000000000000000000000000000000000000000000000000000000000000000000000000000000000000000000000000000000000000000000000000000000000000000000000000000000000000000000000000000000000000000000000000000000000000000000000000000000000000000000000000000000000000000000000000000000000000000",
      "type": "0x2",
      "transactionHash": "0xb112b6d61541d16a6bb8f7ed5ced8d35397ad3c8aba24d6a9627cbd1843813a1",
      "transactionIndex": "0x5",
      "blockHash": "0x54bd7b8b7fd735c05c42b1413bd5b8c29029448a0cc41602481cbf79cec69723",
      "blockNumber": "0xb3885d9",
      "gasUsed": "0xc4b6",
      "effectiveGasPrice": "0x5f5e100",
      "from": "0xc8ff43fe2902dd70d9ace849f384222af4c8030a",
      "to": "0xd0335a436a34278fe380c5997152db21f1da7a10",
      "contractAddress": null,
      "gasUsedForL1": "0x1",
      "l1BlockNumber": "0x8a7ec1",
      "timeboosted": false
    },
    {
      "status": "0x1",
      "cumulativeGasUsed": "0xc9b65",
      "logs": [
        {
          "address": "0x3c8dd7870e9a8e7e996543c4adeb643438d4aba8",
          "topics": [
            "0xddf252ad1be2c89b69c2b068fc378daa952ba7f163c4a11628f55a4df523b3ef",
            "0x000000000000000000000000c8ff43fe2902dd70d9ace849f384222af4c8030a",
            "0x000000000000000000000000d0335a436a34278fe380c5997152db21f1da7a10"
          ],
          "data": "0x00000000000000000000000000000000000000000000000000000190097a49cc",
          "blockHash": "0x5abf5471e95eb15facabede4ca26124c3ce7d04b8d3f6217172faa446630673c",
          "blockNumber": "0xb3885e7",
          "transactionHash": "0xd4d3c4991c05019d2dc77d2d8c314582baf673a03850bbf48567368c698c382c",
          "transactionIndex": "0x3",
          "logIndex": "0x4",
          "removed": false
        }
      ],
      "logsBloom": "0x00000000000000000000000000000000000000000000020000000000000000000000000000000000000000000000000000000000800000000000000000000000000000000000000000000008000000000000000000000000000000000000000000000000000000020000800000000000000000000000000000000010000000000000000000000000000000000000000000000000000000000100000000000000000000000008000000000000000000000000000040000000000000000000000000000002000004000000000000000000000000000000000000000000400000000000000000000000000000000000000000000000000000000000000000000000",
      "type": "0x2",
      "transactionHash": "0xd4d3c4991c05019d2dc77d2d8c314582baf673a03850bbf48567368c698c382c",
      "transactionIndex": "0x3",
      "blockHash": "0x5abf5471e95eb15facabede4ca26124c3ce7d04b8d3f6217172faa446630673c",
      "blockNumber": "0xb3885e7",
      "gasUsed": "0x88de",
      "effectiveGasPrice": "0x5f5e100",
      "from": "0xc8ff43fe2902dd70d9ace849f384222af4c8030a",
      "to": "0x3c8dd7870e9a8e7e996543c4adeb643438d4aba8",
      "contractAddress": null,
      "gasUsedForL1": "0x0",
      "l1BlockNumber": "0x8a7ec1",
      "timeboosted": false
    },
    {
      "status": "0x1",
      "cumulativeGasUsed": "0xced36",
      "logs": [
        {
          "address": "0xe6dc9225e4c76f9c0b002ab2782f687e35cc7666",
          "topics": [
            "0xddf252ad1be2c89b69c2b068fc378daa952ba7f163c4a11628f55a4df523b3ef",
            "0x000000000000000000000000c8ff43fe2902dd70d9ace849f384222af4c8030a",
            "0x000000000000000000000000d0335a436a34278fe380c5997152db21f1da7a10"
          ],
          "data": "0x0000000000000000000000000000000000000000000000000000000000000000",
          "blockHash": "0x7f51900940801bb2076c170a49ca8442131d71556ec45020e237e703c99acf0b",
          "blockNumber": "0xb3885f9",
          "transactionHash": "0x21ecb4df7ce9805fc870b6b8dc3e33fd8afe51fdf9b28b35fdf2541b1b7f38e6",
          "transactionIndex": "0x4",
          "logIndex": "0x5",
          "removed": false
        }
      ],
      "logsBloom": "0x00000000000000000000000000000000000000000000020000000000000000000000000000000000000000000000000000000000800000000000000000000000002000000000000000000008000000800000000000000000000000000000000000000000000000000000000000000000000000000000000000000010000000000000000000000000000000000000000000000000000000000000000000000000000000000008000000000000000000000000000040000000000000000000000000400002000004000000000000000000000000000000000000000000400000000000000000000000000000000000000000000000000000000000000000000000",
      "type": "0x2",
      "transactionHash": "0x21ecb4df7ce9805fc870b6b8dc3e33fd8afe51fdf9b28b35fdf2541b1b7f38e6",
      "transactionIndex": "0x4",
      "blockHash": "0x7f51900940801bb2076c170a49ca8442131d71556ec45020e237e703c99acf0b",
      "blockNumber": "0xb3885f9",
      "gasUsed": "0x72b6",
      "effectiveGasPrice": "0x5f5e100",
      "from": "0xc8ff43fe2902dd70d9ace849f384222af4c8030a",
      "to": "0xe6dc9225e4c76f9c0b002ab2782f687e35cc7666",
      "contractAddress": null,
      "gasUsedForL1": "0x0",
      "l1BlockNumber": "0x8a7ec2",
      "timeboosted": false
    }
  ],
  "libraries": [],
  "pending": [],
  "returns": {},
  "timestamp": 1756315279,
  "chain": 421614,
  "commit": "2ec768d"
}