{
  "transactions": [
    {
      "hash": "0x4da5f5105f8aaa23b72c560de5fe581e81dd62356b17c46a3dd40dc7f9377f9f",
      "transactionType": "CALL",
      "contractName": null,
      "contractAddress": "0xd0335a436a34278fe380c5997152db21f1da7a10",
      "function": "mint(address,int24,int24,uint128)",
      "arguments": [
        "0xC8FF43FE2902dd70d9ace849f384222aF4c8030a",
        "5000",
        "15000",
        "1000000000000000"
      ],
      "transaction": {
        "from": "0xc8ff43fe2902dd70d9ace849f384222af4c8030a",
        "to": "0xd0335a436a34278fe380c5997152db21f1da7a10",
        "gas": "0x1923f",
        "value": "0x0",
        "input": "0xb8cca34e000000000000000000000000c8ff43fe2902dd70d9ace849f384222af4c8030a00000000000000000000000000000000000000000000000000000000000013880000000000000000000000000000000000000000000000000000000000003a9800000000000000000000000000000000000000000000000000038d7ea4c68000",
        "nonce": "0x26",
        "chainId": "0x66eee"
      },
      "additionalContracts": [],
      "isFixedGasLimit": false
    },
    {
      "hash": "0xb803865dc394abc51bfa84754f263a40a3ab57541bb6ee8ffa34b2717348afd1",
      "transactionType": "CALL",
      "contractName": null,
      "contractAddress": "0x3c8dd7870e9a8e7e996543c4adeb643438d4aba8",
      "function": "approve(address,uint256)",
      "arguments": [
        "0xd0335A436A34278fe380C5997152DB21F1DA7A10",
        "1297360111927662"
      ],
      "transaction": {
        "from": "0xc8ff43fe2902dd70d9ace849f384222af4c8030a",
        "to": "0x3c8dd7870e9a8e7e996543c4adeb643438d4aba8",
        "gas": "0x998d",
        "value": "0x0",
        "input": "0x095ea7b3000000000000000000000000d0335a436a34278fe380c5997152db21f1da7a1000000000000000000000000000000000000000000000000000049bf1309e016e",
        "nonce": "0x27",
        "chainId": "0x66eee"
      },
      "additionalContracts": [],
      "isFixedGasLimit": false
    },
    {
      "hash": "0x6d751de7266e7113cafacfc8a6acb743cbccfa36d8011f9c6fa2a1561a82c33e",
      "transactionType": "CALL",
      "contractName": null,
      "contractAddress": "0xe6dc9225e4c76f9c0b002ab2782f687e35cc7666",
      "function": "approve(address,uint256)",
      "arguments": [
        "0xd0335A436A34278fe380C5997152DB21F1DA7A10",
        "0"
      ],
      "transaction": {
        "from": "0xc8ff43fe2902dd70d9ace849f384222af4c8030a",
        "to": "0xe6dc9225e4c76f9c0b002ab2782f687e35cc7666",
        "gas": "0x9852",
        "value": "0x0",
        "input": "0x095ea7b3000000000000000000000000d0335a436a34278fe380c5997152db21f1da7a100000000000000000000000000000000000000000000000000000000000000000",
        "nonce": "0x28",
        "chainId": "0x66eee"
      },
      "additionalContracts": [],
      "isFixedGasLimit": false
    },
    {
      "hash": "0x5132b21b9e211c003dce1d6a9b1c95e8369425ec8fbc637263b530e581c7898f",
      "transactionType": "CALL",
      "contractName": null,
      "contractAddress": "0x3c8dd7870e9a8e7e996543c4adeb643438d4aba8",
      "function": "transfer(address,uint256)",
      "arguments": [
        "0xd0335A436A34278fe380C5997152DB21F1DA7A10",
        "648680055963831"
      ],
      "transaction": {
        "from": "0xc8ff43fe2902dd70d9ace849f384222af4c8030a",
        "to": "0x3c8dd7870e9a8e7e996543c4adeb643438d4aba8",
        "gas": "0xb3c2",
        "value": "0x0",
        "input": "0xa9059cbb000000000000000000000000d0335a436a34278fe380c5997152db21f1da7a1000000000000000000000000000000000000000000000000000024df8984f00b7",
        "nonce": "0x29",
        "chainId": "0x66eee"
      },
      "additionalContracts": [],
      "isFixedGasLimit": false
    },
    {
      "hash": "0x77af25fec7b83513b661758f8bb96b5ca05bdcc5ce82d3dac572b1358de0bf7f",
      "transactionType": "CALL",
      "contractName": null,
      "contractAddress": "0xe6dc9225e4c76f9c0b002ab2782f687e35cc7666",
      "function": "transfer(address,uint256)",
      "arguments": [
        "0xd0335A436A34278fe380C5997152DB21F1DA7A10",
        "0"
      ],
      "transaction": {
        "from": "0xc8ff43fe2902dd70d9ace849f384222af4c8030a",
        "to": "0xe6dc9225e4c76f9c0b002ab2782f687e35cc7666",
        "gas": "0x96e6",
        "value": "0x0",
        "input": "0xa9059cbb000000000000000000000000d0335a436a34278fe380c5997152db21f1da7a100000000000000000000000000000000000000000000000000000000000000000",
        "nonce": "0x2a",
        "chainId": "0x66eee"
      },
      "additionalContracts": [],
      "isFixedGasLimit": false
    }
  ],
  "receipts": [
    {
      "status": "0x1",
      "cumulativeGasUsed": "0x407e8",
      "logs": [],
      "logsBloom": "0x00000000000000000000000000000000000000000000000000000000000000000000000000000000000000000000000000000000000000000000000000000000000000000000000000000000000000000000000000000000000000000000000000000000000000000000000000000000000000000000000000000000000000000000000000000000000000000000000000000000000000000000000000000000000000000000000000000000000000000000000000000000000000000000000000000000000000000000000000000000000000000000000000000000000000000000000000000000000000000000000000000000000000000000000000000000",
      "type": "0x2",
      "transactionHash": "0x4da5f5105f8aaa23b72c560de5fe581e81dd62356b17c46a3dd40dc7f9377f9f",
      "transactionIndex": "0x4",
      "blockHash": "0x04115af4f652a03dd08b078719115fc1c5227a4dfc495c82dbe7a15aa977e54c",
      "blockNumber": "0xb38b848",
      "gasUsed": "0x131ee",
      "effectiveGasPrice": "0x5f5e100",
      "from": "0xc8ff43fe2902dd70d9ace849f384222af4c8030a",
      "to": "0xd0335a436a34278fe380c5997152db21f1da7a10",
      "contractAddress": null,
      "gasUsedForL1": "0x1",
      "l1BlockNumber": "0x8a7fd8",
      "timeboosted": false
    },
    {
      "status": "0x1",
      "cumulativeGasUsed": "0x1ae0a6",
      "logs": [
        {
          "address": "0x3c8dd7870e9a8e7e996543c4adeb643438d4aba8",
          "topics": [
            "0x8c5be1e5ebec7d5bd14f71427d1e84f3dd0314c0f7b2291e5b200ac8c7c3b925",
            "0x000000000000000000000000c8ff43fe2902dd70d9ace849f384222af4c8030a",
            "0x000000000000000000000000d0335a436a34278fe380c5997152db21f1da7a10"
          ],
          "data": "0x00000000000000000000000000000000000000000000000000049bf1309e016e",
          "blockHash": "0x6120e1e28d58c40845ba6181858884897360336ea46e593032adeceadc5a3568",
          "blockNumber": "0xb38b853",
          "transactionHash": "0xb803865dc394abc51bfa84754f263a40a3ab57541bb6ee8ffa34b2717348afd1",
          "transactionIndex": "0xa",
          "logIndex": "0x36",
          "removed": false
        }
      ],
      "logsBloom": "0x00000000000000000000000000000000000000000000020000000000000000000000000000000000000000000000000000000000800000000000000000200000000000000000000000000000000000000000000000000000000000000000000000000000000000020000800000000000000000000000000000000000000000000000000000000000000000000000000000000000000000000100000000000000020000000008000000000000000000000000000040000000000000000000000000000000000004000000000000000000000000000000000000000000400000000010000000000000000000000000000000000000000000000000000000000000",
      "type": "0x2",
      "transactionHash": "0xb803865dc394abc51bfa84754f263a40a3ab57541bb6ee8ffa34b2717348afd1",
      "transactionIndex": "0xa",
      "blockHash": "0x6120e1e28d58c40845ba6181858884897360336ea46e593032adeceadc5a3568",
      "blockNumber": "0xb38b853",
      "gasUsed": "0x74c0",
      "effectiveGasPrice": "0x5f5e100",
      "from": "0xc8ff43fe2902dd70d9ace849f384222af4c8030a",
      "to": "0x3c8dd7870e9a8e7e996543c4adeb643438d4aba8",
      "contractAddress": null,
      "gasUsedForL1": "0x1",
      "l1BlockNumber": "0x8a7fd8",
      "timeboosted": false
    },
    {
      "status": "0x1",
      "cumulativeGasUsed": "0x61ac",
      "logs": [
        {
          "address": "0xe6dc9225e4c76f9c0b002ab2782f687e35cc7666",
          "topics": [
            "0x8c5be1e5ebec7d5bd14f71427d1e84f3dd0314c0f7b2291e5b200ac8c7c3b925",
            "0x000000000000000000000000c8ff43fe2902dd70d9ace849f384222af4c8030a",
            "0x000000000000000000000000d0335a436a34278fe380c5997152db21f1da7a10"
          ],
          "data": "0x0000000000000000000000000000000000000000000000000000000000000000",
          "blockHash": "0x539033e595fb5be822de64c02042deb6f96a4b41239538bf106c8603f3a54867",
          "blockNumber": "0xb38b85d",
          "transactionHash": "0x6d751de7266e7113cafacfc8a6acb743cbccfa36d8011f9c6fa2a1561a82c33e",
          "transactionIndex": "0x1",
          "logIndex": "0x0",
          "removed": false
        }
      ],
      "logsBloom": "0x00000000000000000000000000000000000000000000020000000000000000000000000000000000000000000000000000000000800000000000000000200000002000000000000000000000000000800000000000000000000000000000000000000000000000000000000000000000000000000000000000000000000000000000000000000000000000000000000000000000000000000000000000000000020000000008000000000000000000000000000040000000000000000000000000400000000004000000000000000000000000000000000000000000400000000010000000000000000000000000000000000000000000000000000000000000",
      "type": "0x2",
      "transactionHash": "0x6d751de7266e7113cafacfc8a6acb743cbccfa36d8011f9c6fa2a1561a82c33e",
      "transactionIndex": "0x1",
      "blockHash": "0x539033e595fb5be822de64c02042deb6f96a4b41239538bf106c8603f3a54867",
      "blockNumber": "0xb38b85d",
      "gasUsed": "0x61ac",
      "effectiveGasPrice": "0x5f5e100",
      "from": "0xc8ff43fe2902dd70d9ace849f384222af4c8030a",
      "to": "0xe6dc9225e4c76f9c0b002ab2782f687e35cc7666",
      "contractAddress": null,
      "gasUsedForL1": "0x1",
      "l1BlockNumber": "0x8a7fd9",
      "timeboosted": false
    },
    {
      "status": "0x1",
      "cumulativeGasUsed": "0xa21ec",
      "logs": [
        {
          "address": "0x3c8dd7870e9a8e7e996543c4adeb643438d4aba8",
          "topics": [
            "0xddf252ad1be2c89b69c2b068fc378daa952ba7f163c4a11628f55a4df523b3ef",
            "0x000000000000000000000000c8ff43fe2902dd70d9ace849f384222af4c8030a",
            "0x000000000000000000000000d0335a436a34278fe380c5997152db21f1da7a10"
          ],
          "data": "0x00000000000000000000000000000000000000000000000000024df8984f00b7",
          "blockHash": "0xc3e389012a9f5ba9340aa8d2de7adb55daeefe77dcaf3a719c4c46f409824c3d",
          "blockNumber": "0xb38b865",
          "transactionHash": "0x5132b21b9e211c003dce1d6a9b1c95e8369425ec8fbc637263b530e581c7898f",
          "transactionIndex": "0x6",
          "logIndex": "0x12",
          "removed": false
        }
      ],
      "logsBloom": "0x00000000000000000000000000000000000000000000020000000000000000000000000000000000000000000000000000000000800000000000000000000000000000000000000000000008000000000000000000000000000000000000000000000000000000020000800000000000000000000000000000000010000000000000000000000000000000000000000000000000000000000100000000000000000000000008000000000000000000000000000040000000000000000000000000000002000004000000000000000000000000000000000000000000400000000000000000000000000000000000000000000000000000000000000000000000",
      "type": "0x2",
      "transactionHash": "0x5132b21b9e211c003dce1d6a9b1c95e8369425ec8fbc637263b530e581c7898f",
      "transactionIndex": "0x6",
      "blockHash": "0xc3e389012a9f5ba9340aa8d2de7adb55daeefe77dcaf3a719c4c46f409824c3d",
      "blockNumber": "0xb38b865",
      "gasUsed": "0x88df",
      "effectiveGasPrice": "0x5f5e100",
      "from": "0xc8ff43fe2902dd70d9ace849f384222af4c8030a",
      "to": "0x3c8dd7870e9a8e7e996543c4adeb643438d4aba8",
      "contractAddress": null,
      "gasUsedForL1": "0x1",
      "l1BlockNumber": "0x8a7fd9",
      "timeboosted": false
    },
    {
      "status": "0x1",
      "cumulativeGasUsed": "0x421d2",
      "logs": [
        {
          "address": "0xe6dc9225e4c76f9c0b002ab2782f687e35cc7666",
          "topics": [
            "0xddf252ad1be2c89b69c2b068fc378daa952ba7f163c4a11628f55a4df523b3ef",
            "0x000000000000000000000000c8ff43fe2902dd70d9ace849f384222af4c8030a",
            "0x000000000000000000000000d0335a436a34278fe380c5997152db21f1da7a10"
          ],
          "data": "0x0000000000000000000000000000000000000000000000000000000000000000",
          "blockHash": "0x0d2f548c7984def7a86aecfa0242872ce3642d60d866133e02b43435e5104b38",
          "blockNumber": "0xb38b86f",
          "transactionHash": "0x77af25fec7b83513b661758f8bb96b5ca05bdcc5ce82d3dac572b1358de0bf7f",
          "transactionIndex": "0x3",
          "logIndex": "0x5",
          "removed": false
        }
      ],
      "logsBloom": "0x00000000000000000000000000000000000000000000020000000000000000000000000000000000000000000000000000000000800000000000000000000000002000000000000000000008000000800000000000000000000000000000000000000000000000000000000000000000000000000000000000000010000000000000000000000000000000000000000000000000000000000000000000000000000000000008000000000000000000000000000040000000000000000000000000400002000004000000000000000000000000000000000000000000400000000000000000000000000000000000000000000000000000000000000000000000",
      "type": "0x2",
      "transactionHash": "0x77af25fec7b83513b661758f8bb96b5ca05bdcc5ce82d3dac572b1358de0bf7f",
      "transactionIndex": "0x3",
      "blockHash": "0x0d2f548c7984def7a86aecfa0242872ce3642d60d866133e02b43435e5104b38",
      "blockNumber": "0xb38b86f",
      "gasUsed": "0x72b7",
      "effectiveGasPrice": "0x5f5e100",
      "from": "0xc8ff43fe2902dd70d9ace849f384222af4c8030a",
      "to": "0xe6dc9225e4c76f9c0b002ab2782f687e35cc7666",
      "contractAddress": null,
      "gasUsedForL1": "0x1",
      "l1BlockNumber": "0x8a7fd9",
      "timeboosted": false
    }
  ],
  "libraries": [],
  "pending": [],
  "returns": {},
  "timestamp": 1756318722,
  "chain": 421614,
  "commit": "2ec768d"
}